:020000020000FC
:0200000033C00B
:0200040030C00A
:020008002EC008
:02000C002CC006
:020010002AC004
:0200140028C002
:0200180026C000
:02001C0024C0FE
:0200200022C0FC
:0200240020C0FA
:020028001EC0F8
:02002C001CC0F6
:020030001AC0F4
:0200340018C0F2
:0200380011C1F4
:02003C0014C0EE
:0200400012C0EC
:0200440010C0EA
:020048000EC0E8
:02004C000CC0E6
:020050000AC0E4
:0200540008C0E2
:0200580006C0E0
:02005C0004C0DE
:0200600002C0DC
:1000640000C018950FEF0DBF08E00EBF00E0202E72
:100074000FEF402E01E0302E922DC0E0D1E00FEFC3
:1000840012E029920C171D07E1F70E9493000E94C9
:10009400C300789407E100930001009301011091DB
:1000A40001012AE7FDD01091000124E0F9D01FE1FD
:1000B400109302012FE32093020144D12EC0CC24DB
:1000C400DD247727882404E1902E07E2A02E906493
:1000D40007E10093000100930101109101012AE757
:1000E400DFD01091000124E0DBD01FE11093020166
:1000F4002FE32093020126D17B7F74FE7460777F07
:1001040075FE78605FD18ED104E197FC902E07E2F2
:10011400A7FCA02E96FF01C0F5CF95FFFECFFCD023
:10012400CECF2A98229A2B9A239A2D9A259A289AE6
:10013400209A2998219A3B98439A3A98429A50983F
:10014400589A5198599A3898409A0091350000610C
:10015400009335000CE707BD02E004BD03E005BDD4
:1001640000916E00026000936E0008950F931F9338
:1001740015E600E80A95F1F71A95D9F71F910F9142
:1001840008952998F3DF299AF1DF0DB50EB500E53E
:100194000CBD04E1EBDF0A95E9F708EA59D00FE357
:1001A40057D003ED55D000E053D000E451D000EA1D
:1001B4004FD000EC4DD00AED4BD002E149D001E81C
:1001C40047D00FE845D004EA43D006EA41D005ED14
:1001D4003FD000E83DD00DE83BD004E139D00FEA30
:1001E40037D000E235D001E033D001E231D000E075
:1001F4002FD00FE72DD002E22BD000EB29D007EB54
:1002040027D005D001E824D00FEF22D008950F9312
:100214001F932F9301E21CD000E01AD00FE718D0EF
:1002240002E216D000EB14D007EB12D010E024E069
:1002340000E008D01A95E1F72A95D1F72F911F9184
:100244000F9108950EBD0DB507FFFDCF0DB50895AF
:100254002898F8DF289A0895BFB60F93730C621C90
:10026400521C072D0770073059F4917C339B906121
:10027400329B9860489B9460499B9260309B90624B
:10028400781419F408E0800E91607C1411F4C90C00
:1002940071607D1411F4DA0C72600F91BFBE189571
:1002A40001E2D6DF022FD4DF022F0395D1DF02E271
:1002B400CFDF00EBCDDF07EBCBDF22E0221559F1D6
:1002C40088E0F82E812F869586958695F81A022D5A
:1002D400821529F00027B6DF8A958211FBCF042D01
:1002E400812F8770821519F0000F8A95FBCF802F1C
:1002F400A9DFFA94042DA6DFFA94082F0425F2143A
:1003040041F0A0DFFA94F21421F000279BDFFA9465
:10031400FACF2A95D3CF089501E29ADF0091030121
:1003240097DF00910301039593DF02E291DF00EB75
:100334008FDF07EB8DDF80E18A95002783DF821151
:10034400FBCF0895109302012093030101E280DFA3
:10035400022F7EDF022F03957BDF02E279DF00EBC1
:1003640077DF07EB75DF22E0221559F188E0F82EDC
:10037400812F869586958695F81A022D821529F087
:10038400002760DF8A958211FBCF042D812F8770AF
:10039400873049F003E0821519F08A95000FFBCFEE
:1003A40051DFFA9406C000E84DDFFA9401E04ADF19
:1003B400FA94F21421F0002745DFFA94FACF2A9533
:1003C400D3CF089590FF2DC09E7F91FF09C0109157
:1003D4000001121529F01A951093000124E060DF42
:1003E40092FF09C010910001103329F01395109366
:1003F400000124E055DF93FF09C01091010112159B
:1004040029F01A95109301012AE74ADF94FF09C0E5
:1004140010910101103329F01395109301012AE77B
:100424003FDF089571FF1DC07D7F1091020120916F
:10043400030173FF0BC0121105C013956DDF82DF3A
:10044400777F0FC01A9568DF7DDF0BC00EE31013B2
:1004540005C078601A9560DF75DF03C013955CDF13
:1004640071DF70FF67C07E7F10910201209103014C
:1004740072FF31C006E0201721F02A954DDF62DFBC
:1004840059C080910001821559F08A95181B0AF110
:1004940010E1810F109102018395181BD2F403C05F
:1004A4008FE0181BB2F410910201209103012395EF
:1004B40033DF48DF7B7F3FD004E091FF05C073FD4D
:1004C400A01A73FFA00E36C073FDA00E73FFA01A0E
:1004D40031C09F7B2FC008E7201721F023951CDF34
:1004E40031DF28C080910101821559F08A95181BCB
:1004F40082F310E1810F109102018395181B4AF7D2
:1005040003C08FE0181B2AF7109102012091030108
:100514002A9502DF17DF74600ED004E093FF05C054
:1005240073FDA01A73FFA00E05C073FDA00E73FF28
:10053400A01A00C00895092D069506950695021582
:0A05440011F0901A01C09A94089576
:00000001FF
